:100000000C9480010C949D010C949D010C949D0115
:100010000C949D010C949D010C949D010C949D01E8
:100020000C949D010C949D010C949D010C949D01D8
:100030000C949D010C949D010C949D010C949D01C8
:100040000C949D010C949D010C949D010C949D01B8
:100050000C949D010C949D010C949D010C949D01A8
:100060000C949D010C949D01AED580A81FD3004037
:100070008D142001A1C8DA02818FD9F1DB40A6AF2F
:1000800000000000003E5B4F5B3E3E6B4F6B3E1C32
:100090003E7C3E1C183C7E3C181C577D571C1C5E49
:1000A0007F5E1C00183C1800FFE7C3E7FF00182420
:1000B0001800FFE7DBE7FF30483A060E26297929CA
:1000C00026407F050507407F05253F5A3CE73C5AFF
:1000D0007F3E1C1C08081C1C3E7F14227F22145FDC
:1000E0005F005F5F06097F017F006689956A606037
:1000F00060606094A2FFA29408047E040810207E31
:10010000201008082A1C08081C2A08081E101010B5
:10011000100C1E0C1E0C30383E3830060E3E0E06FB
:10012000000000000000005F00000007000700144E
:100130007F147F14242A7F2A12231308646236490D
:100140005620500008070300001C224100004122F5
:100150001C002A1C7F1C2A08083E080800807030FA
:100160000008080808080000606000201008040269
:100170003E5149453E00427F40007249494946216F
:1001800041494D331814127F1027454545393C4AE3
:1001900049493141211109073649494936464949FA
:1001A000291E000014000000403400000008142242
:1001B00041141414141400412214080201590906B0
:1001C0003E415D594E7C1211127C7F494949363EB1
:1001D000414141227F4141413E7F494949417F0997
:1001E0000909013E414151737F0808087F00417FA2
:1001F00041002040413F017F081422417F404040A0
:10020000407F021C027F7F0408107F3E4141413E37
:100210007F090909063E4151215E7F0919294626B9
:100220004949493203017F01033F4040403F1F20BD
:1002300040201F3F4038403F631408146303047894
:1002400004036159494D43007F41414102040810B4
:1002500020004141417F04020102044040404040EF
:10026000000307080020545478407F28444438385D
:1002700044444428384444287F38545454180008CF
:100280007E090218A4A49C787F0804047800447DA9
:1002900040002040403D007F1028440000417F4046
:1002A000007C047804787C0804047838444444389A
:1002B000FC1824241818242418FC7C08040408487A
:1002C0005454542404043F44243C4040207C1C20CB
:1002D00040201C3C4030403C44281028444C909026
:1002E000907C4464544C4400083641000000770080
:1002F00000004136080002010204023C2623263C8D
:1003000011241FBECFEFD8E0DEBFCDBF11E0A0E0CB
:10031000B1E0EEE8F7E002C005900D92AE30B10713
:10032000D9F721E0AEE0B1E001C01D92A131B207E2
:10033000E1F70E94AA030C94C5030C9400000F93EC
:100340001F93CF93DF93082FC62FD42F88E70E94E7
:100350006F0380E00E94940381E20E9494038D2F3A
:100360000E94940385E08D0F0E94940382E20E9414
:1003700094038C2F0E9494038C2F0E9494030E945C
:10038000A60388E70E946F0380E40E949403802FF5
:1003900090E08C01000F111F000F111F080F191F93
:1003A000E801C058DF4F0B571F4FFE0184910E9498
:1003B00094032196C017D107C1F70E94A603DF91CD
:1003C000CF911F910F910895EF92FF920F931F937A
:1003D000CF93DF93E82EC62FD42F88E70E946F03B8
:1003E00080E00E94940381E20E9494038D2F0E947A
:1003F00094038BE08D0F0E94940382E20E94940389
:100400008C2F0E94940381E08C0F0E9494030E9421
:10041000A60388E70E946F0380E40E9494038E2D58
:1004200090E07C01EE0CFF1CEE0CFF1C8E0D9F1D5E
:100430008C0100581F4F9C012B573F4F7901F80149
:100440008491C82FC07FF0E1CF9FE00111248F700D
:10045000C82BCE01880F991F880F991FC82BD92B45
:10046000C373D373CE01880F991FC82BD92BC575C1
:10047000D575CE01880F991FC82BD92B8C2F0E94C0
:1004800094038D2F0E9494038C2F0E9494038D2F30
:100490000E9494030F5F1F4F0E151F0581F60E94E7
:1004A000A603DF91CF911F910F91FF90EF900895D8
:1004B000CF93DF9388E70E946F0380E00E9494034C
:1004C00081E20E94940380E00E9494038FE70E94DF
:1004D000940382E20E94940380E00E94940387E0E8
:1004E0000E9494030E94A603D0E288E70E946F0353
:1004F00080E40E949403C0E280E00E949403C15013
:10050000D9F70E94A603D15081F7DF91CF910895CA
:10051000CF93C82F88E70E946F0380E00E94940366
:100520008C2F880F880F880F805C0E9494030E9494
:10053000A603CF91089580930E01E82FF0E0EE0F0F
:10054000FF1FE050FF4F80819181909310018093B5
:100550000F0108950F931F93CF93DF930E946B03B6
:1005600088E70E946F0380E00E949403C8E6D0E011
:1005700000E810E0FE0184910E9494032196C017C8
:10058000D107C1F70E94A60380E00E949B0280E091
:100590000E948802DF91CF911F910F910895CF9211
:1005A000DF92EF92FF920F931F93CF93DF93C62EAC
:1005B000D22EC42FCC0F4C0FC42FCC0F21111CC036
:1005C000DD24DA9419C0E0910F01F09110014C2F55
:1005D0006C2D0995C70100900E0102C0880F991F6C
:1005E0000A94E2F7C80FDF5FDD15A0F4F8018191EE
:1005F0008F018111E8CF0EC08C010F5F1F4FFC01EE
:100600008081882339F0D0E00F2EF6E0EF2EF12C18
:10061000F02DD9CFDF91CF911F910F91FF90EF90E7
:10062000DF90CF900895AF92BF92CF92DF92EF927A
:10063000FF920F93CF93DF936B017C01D42FC22FD6
:10064000CC0FC20FCC0F22E04C2F6D2F84E091E035
:100650000E94CF0286E090E000900E0102C0880F59
:10066000991F0A94E2F792E0900F989FC00D112411
:10067000002339F10F2EF6E0AF2EB12CF02DC5017D
:1006800000900E0102C0880F991F0A94E2F7C81B60
:10069000C0FE09C0E0910F01F09110014C2F6D2FA9
:1006A00081E3099508C0E0910F01F09110014C2FF2
:1006B0006D2F80E30995F694E794D794C794015081
:1006C000F1F6DF91CF910F91FF90EF90DF90CF90F7
:1006D000BF90AF90089582E08093B8000895ECEB4E
:1006E000F0E0108294EA908390819923ECF7909146
:1006F000B900987F9830A1F48093BB0084E8809380
:10070000BC00ECEBF0E080818823ECF79091B9001D
:10071000987F983139F081E0903429F480E0089591
:1007200081E0089580E008958093BB0084E8809381
:10073000BC00ECEBF0E080818823ECF79091B900ED
:10074000987F81E0983209F480E0089584E98093ED
:10075000BC0008950E94AA020E94580280E00E94F4
:100760009B0223E040E060E08AE091E00E94CF023B
:1007700081E00E949B0208E020E042E06BEA70E02A
:0E07800080E090E00E941303FFCFF894FFCFBB
:0E078E009F01E4013062003078006162630078
:00000001FF
