:100000000C9480010C9495010C9495010C9495012D
:100010000C9495010C9495010C9495010C94950108
:100020000C9495010C9495010C9495010C949501F8
:100030000C9495010C9495010C9495010C949501E8
:100040000C9495010C9495010C9495010C949501D8
:100050000C9495010C9495010C9495010C949501C8
:100060000C9495010C949501AED580A81FD3004047
:100070008D142001A1C8DA02818FD9F1DB40A6AF2F
:1000800000000000003E5B4F5B3E3E6B4F6B3E1C32
:100090003E7C3E1C183C7E3C181C577D571C1C5E49
:1000A0007F5E1C00183C1800FFE7C3E7FF00182420
:1000B0001800FFE7DBE7FF30483A060E26297929CA
:1000C00026407F050507407F05253F5A3CE73C5AFF
:1000D0007F3E1C1C08081C1C3E7F14227F22145FDC
:1000E0005F005F5F06097F017F006689956A606037
:1000F00060606094A2FFA29408047E040810207E31
:10010000201008082A1C08081C2A08081E101010B5
:10011000100C1E0C1E0C30383E3830060E3E0E06FB
:10012000000000000000005F00000007000700144E
:100130007F147F14242A7F2A12231308646236490D
:100140005620500008070300001C224100004122F5
:100150001C002A1C7F1C2A08083E080800807030FA
:100160000008080808080000606000201008040269
:100170003E5149453E00427F40007249494946216F
:1001800041494D331814127F1027454545393C4AE3
:1001900049493141211109073649494936464949FA
:1001A000291E000014000000403400000008142242
:1001B00041141414141400412214080201590906B0
:1001C0003E415D594E7C1211127C7F494949363EB1
:1001D000414141227F4141413E7F494949417F0997
:1001E0000909013E414151737F0808087F00417FA2
:1001F00041002040413F017F081422417F404040A0
:10020000407F021C027F7F0408107F3E4141413E37
:100210007F090909063E4151215E7F0919294626B9
:100220004949493203017F01033F4040403F1F20BD
:1002300040201F3F4038403F631408146303047894
:1002400004036159494D43007F41414102040810B4
:1002500020004141417F04020102044040404040EF
:10026000000307080020545478407F28444438385D
:1002700044444428384444287F38545454180008CF
:100280007E090218A4A49C787F0804047800447DA9
:1002900040002040403D007F1028440000417F4046
:1002A000007C047804787C0804047838444444389A
:1002B000FC1824241818242418FC7C08040408487A
:1002C0005454542404043F44243C4040207C1C20CB
:1002D00040201C3C4030403C44281028444C909026
:1002E000907C4464544C4400083641000000770080
:1002F00000004136080002010204023C2623263C8D
:1003000011241FBECFEFD4E0DEBFCDBF11E0A0E0CF
:10031000B1E0E6EEF5E002C005900D92AA30B1071B
:10032000D9F70E94CE020C94F1020C9400000F93B6
:100330001F93CF93DF930E948F0288E70E9493025E
:1003400080E00E94B802C8E6D0E000E810E0FE01BC
:1003500084910E94B8022196C017D107C1F70E946C
:10036000CA02DF91CF911F910F910895CF93DF9330
:1003700088E70E94930280E00E94B80281E20E9416
:10038000B80280E00E94B8028FE70E94B80282E2C1
:100390000E94B80280E00E94B80287E00E94B80282
:1003A0000E94CA02D0E288E70E94930280E40E9481
:1003B000B802C0E280E00E94B802C150D9F70E94A2
:1003C000CA02D15081F7DF91CF910895CF93C82F02
:1003D00088E70E94930280E00E94B8028C2F880F69
:1003E000880F880F805C0E94B8020E94CA02CF91D9
:1003F00008950F931F93CF93DF93082FD62FC42F09
:10040000CC0F4C0FC42FCC0F88E70E94930280E0E2
:100410000E94B80281E20E94B8028C2F0E94B802AA
:1004200085E08C0F0E94B80282E20E94B8028D2FF4
:100430000E94B8028D2F0E94B8020E94CA0288E76B
:100440000E94930280E40E94B802802F90E08C0109
:10045000000F111F000F111F080F191FE801C058CE
:10046000DF4F0B571F4FFE0184910E94B802219667
:10047000C017D107C1F70E94CA02DF91CF911F9127
:100480000F910895AF92BF92CF92DF92EF92FF92B9
:100490000F931F93CF93DF937C01062FD42FCFEFC1
:1004A000C20F92F1B12CAA24A394EC2FEE0FFF0BF4
:1004B000E050FF4FC080D180C701B6010E94DD022D
:1004C000162F662379F04D2F602F80E3810F0E9455
:1004D000F9011C9DC0011D9D900D1124E81AF90A17
:1004E000BA2C0FC0B11002C0C11106C04D2F602F31
:1004F00080E30E94F90105C04D2F602F80E20E9429
:10050000F901DF5FC1508AF6DF91CF911F910F9102
:10051000FF90EF90DF90CF90BF90AF90089580E272
:100520008093B8000895ECEBF0E0108294EA908399
:1005300090819923ECF79091B900987F9830A1F4BD
:100540008093BB0084E88093BC00ECEBF0E08081FA
:100550008823ECF79091B900987F983139F081E0C9
:10056000903429F480E0089581E0089580E00895B2
:100570008093BB0084E88093BC00ECEBF0E08081CA
:100580008823ECF79091B900987F81E0983209F4C4
:1005900080E0089584E98093BC0008950E9497014B
:1005A0000E94B60180E00E94E60124E040E061E0A4
:1005B0008AE090E00E944202FFCFAA1BBB1B51E1E0
:1005C00007C0AA1FBB1FA617B70710F0A61BB70BC3
:1005D000881F991F5A95A9F780959095BC01CD0168
:0605E0000895F894FFCF1E
:0A05E60001000A006400E80310277A
:00000001FF
